{
  "_format": "hh-sol-artifact-1",
  "contractName": "TokenSale",
  "sourceName": "contracts/TokenSale.sol",
  "abi": [
    {
      "inputs": [
        {
          "internalType": "contract Token",
          "name": "tokenInstance",
          "type": "address"
        },
        {
          "internalType": "uint256",
          "name": "_tokenPrice",
          "type": "uint256"
        }
      ],
      "stateMutability": "nonpayable",
      "type": "constructor"
    },
    {
      "anonymous": false,
      "inputs": [
        {
          "indexed": true,
          "internalType": "address",
          "name": "_buyer",
          "type": "address"
        },
        {
          "indexed": true,
          "internalType": "uint256",
          "name": "_amount",
          "type": "uint256"
        }
      ],
      "name": "Sell",
      "type": "event"
    },
    {
      "inputs": [
        {
          "internalType": "address",
          "name": "_address",
          "type": "address"
        },
        {
          "internalType": "uint256",
          "name": "_tokens",
          "type": "uint256"
        }
      ],
      "name": "buyTokens",
      "outputs": [],
      "stateMutability": "payable",
      "type": "function"
    },
    {
      "inputs": [],
      "name": "tokenContract",
      "outputs": [
        {
          "internalType": "contract Token",
          "name": "",
          "type": "address"
        }
      ],
      "stateMutability": "view",
      "type": "function"
    },
    {
      "inputs": [],
      "name": "tokenPrice",
      "outputs": [
        {
          "internalType": "uint256",
          "name": "",
          "type": "uint256"
        }
      ],
      "stateMutability": "view",
      "type": "function"
    },
    {
      "inputs": [],
      "name": "tokensSold",
      "outputs": [
        {
          "internalType": "uint256",
          "name": "",
          "type": "uint256"
        }
      ],
      "stateMutability": "view",
      "type": "function"
    }
  ],
  "bytecode": "0x608060405234801561001057600080fd5b506040516104e43803806104e483398101604081905261002f91610066565b60008054336001600160a01b031991821617909155600180549091166001600160a01b03939093169290921790915560025561009e565b60008060408385031215610078578182fd5b82516001600160a01b038116811461008e578283fd5b6020939093015192949293505050565b610437806100ad6000396000f3fe60806040526004361061003f5760003560e01c80630752881a14610044578063518ab2a81461005957806355a373d6146100825780637ff9b596146100ba575b600080fd5b610057610052366004610346565b6100d0565b005b34801561006557600080fd5b5061006f60035481565b6040519081526020015b60405180910390f35b34801561008e57600080fd5b506001546100a2906001600160a01b031681565b6040516001600160a01b039091168152602001610079565b3480156100c657600080fd5b5061006f60025481565b60045460ff16156101195760405162461bcd60e51b815260206004820152600e60248201526d4e6f2072652d656e7472616e637960901b60448201526064015b60405180910390fd5b6004805460ff19166001179055600254610134908290610313565b60025461014190836103cc565b1461018e5760405162461bcd60e51b815260206004820152601a60248201527f546f6b656e206d756c7469706c69636174696f6e206572726f720000000000006044820152606401610110565b600160009054906101000a90046001600160a01b03166001600160a01b03166318160ddd6040518163ffffffff1660e01b815260040160206040518083038186803b1580156101dc57600080fd5b505afa1580156101f0573d6000803e3d6000fd5b505050506040513d601f19601f82011682018060405250810190610214919061037c565b60035411156102555760405162461bcd60e51b815260206004820152600d60248201526c4f7574206f6620546f6b656e7360981b6044820152606401610110565b80600360008282546102679190610394565b90915550506001546040516323b872dd60e01b81523360048201526001600160a01b03848116602483015260448201849052909116906323b872dd90606401600060405180830381600087803b1580156102c057600080fd5b505af11580156102d4573d6000803e3d6000fd5b50506040518392503391507f5e5e995ce3133561afceaa51a9a154d5db228cd7525d34df5185582c18d3df0990600090a350506004805460ff19169055565b60008115806103375750828261032981836103cc565b925061033590836103ac565b145b61034057600080fd5b92915050565b60008060408385031215610358578182fd5b82356001600160a01b038116811461036e578283fd5b946020939093013593505050565b60006020828403121561038d578081fd5b5051919050565b600082198211156103a7576103a76103eb565b500190565b6000826103c757634e487b7160e01b81526012600452602481fd5b500490565b60008160001904831182151516156103e6576103e66103eb565b500290565b634e487b7160e01b600052601160045260246000fdfea26469706673582212202988269068c2b0af7b21c5a48273ea665853ddd4bd9774a7884aa04f38f7c8b564736f6c63430008040033",
  "linkReferences": {},
  "deployedLinkReferences": {}
}