{
  "_format": "hh-sol-artifact-1",
  "contractName": "Token",
  "sourceName": "contracts/Token.sol",
  "abi": [
    {
      "inputs": [
        {
          "internalType": "uint256",
          "name": "_initialSupply",
          "type": "uint256"
        }
      ],
      "stateMutability": "nonpayable",
      "type": "constructor"
    },
    {
      "anonymous": false,
      "inputs": [
        {
          "indexed": true,
          "internalType": "address",
          "name": "_owner",
          "type": "address"
        },
        {
          "indexed": true,
          "internalType": "address",
          "name": "_spender",
          "type": "address"
        },
        {
          "indexed": false,
          "internalType": "uint256",
          "name": "_value",
          "type": "uint256"
        }
      ],
      "name": "Approval",
      "type": "event"
    },
    {
      "anonymous": false,
      "inputs": [
        {
          "indexed": true,
          "internalType": "address",
          "name": "_from",
          "type": "address"
        },
        {
          "indexed": true,
          "internalType": "address",
          "name": "_to",
          "type": "address"
        },
        {
          "indexed": false,
          "internalType": "uint256",
          "name": "_value",
          "type": "uint256"
        }
      ],
      "name": "Transfer",
      "type": "event"
    },
    {
      "inputs": [
        {
          "internalType": "address",
          "name": "_owner",
          "type": "address"
        },
        {
          "internalType": "address",
          "name": "_spender",
          "type": "address"
        }
      ],
      "name": "allowance",
      "outputs": [
        {
          "internalType": "uint256",
          "name": "",
          "type": "uint256"
        }
      ],
      "stateMutability": "view",
      "type": "function"
    },
    {
      "inputs": [
        {
          "internalType": "address",
          "name": "_spender",
          "type": "address"
        },
        {
          "internalType": "uint256",
          "name": "_value",
          "type": "uint256"
        }
      ],
      "name": "approve",
      "outputs": [
        {
          "internalType": "bool",
          "name": "",
          "type": "bool"
        }
      ],
      "stateMutability": "nonpayable",
      "type": "function"
    },
    {
      "inputs": [
        {
          "internalType": "address",
          "name": "account",
          "type": "address"
        }
      ],
      "name": "balanceOf",
      "outputs": [
        {
          "internalType": "uint256",
          "name": "balance",
          "type": "uint256"
        }
      ],
      "stateMutability": "view",
      "type": "function"
    },
    {
      "inputs": [
        {
          "internalType": "address",
          "name": "",
          "type": "address"
        }
      ],
      "name": "balances",
      "outputs": [
        {
          "internalType": "uint256",
          "name": "",
          "type": "uint256"
        }
      ],
      "stateMutability": "view",
      "type": "function"
    },
    {
      "inputs": [
        {
          "internalType": "address",
          "name": "_spender",
          "type": "address"
        },
        {
          "internalType": "uint256",
          "name": "_decreasedValue",
          "type": "uint256"
        }
      ],
      "name": "decreaseAllowance",
      "outputs": [
        {
          "internalType": "bool",
          "name": "",
          "type": "bool"
        }
      ],
      "stateMutability": "nonpayable",
      "type": "function"
    },
    {
      "inputs": [
        {
          "internalType": "address",
          "name": "_spender",
          "type": "address"
        },
        {
          "internalType": "uint256",
          "name": "_addedValue",
          "type": "uint256"
        }
      ],
      "name": "increaseAllowance",
      "outputs": [
        {
          "internalType": "bool",
          "name": "",
          "type": "bool"
        }
      ],
      "stateMutability": "nonpayable",
      "type": "function"
    },
    {
      "inputs": [],
      "name": "name",
      "outputs": [
        {
          "internalType": "string",
          "name": "",
          "type": "string"
        }
      ],
      "stateMutability": "view",
      "type": "function"
    },
    {
      "inputs": [],
      "name": "owner",
      "outputs": [
        {
          "internalType": "address",
          "name": "",
          "type": "address"
        }
      ],
      "stateMutability": "view",
      "type": "function"
    },
    {
      "inputs": [],
      "name": "symbol",
      "outputs": [
        {
          "internalType": "string",
          "name": "",
          "type": "string"
        }
      ],
      "stateMutability": "view",
      "type": "function"
    },
    {
      "inputs": [],
      "name": "totalSupply",
      "outputs": [
        {
          "internalType": "uint256",
          "name": "",
          "type": "uint256"
        }
      ],
      "stateMutability": "view",
      "type": "function"
    },
    {
      "inputs": [
        {
          "internalType": "address",
          "name": "_to",
          "type": "address"
        },
        {
          "internalType": "uint256",
          "name": "_amount",
          "type": "uint256"
        }
      ],
      "name": "transfer",
      "outputs": [],
      "stateMutability": "nonpayable",
      "type": "function"
    },
    {
      "inputs": [
        {
          "internalType": "address",
          "name": "_from",
          "type": "address"
        },
        {
          "internalType": "address",
          "name": "_to",
          "type": "address"
        },
        {
          "internalType": "uint256",
          "name": "_value",
          "type": "uint256"
        }
      ],
      "name": "transferFrom",
      "outputs": [],
      "stateMutability": "nonpayable",
      "type": "function"
    }
  ],
  "bytecode": "0x60806040523480156200001157600080fd5b5060405162000d4b38038062000d4b833981016040819052620000349162000167565b6040805180820190915260058082526442696e676160d81b60209092019182526200006291600091620000c1565b5060408051808201909152600380825262424e4760e81b60209092019182526200008f91600191620000c1565b50600281905533600081815260046020526040902091909155600380546001600160a01b0319169091179055620001bd565b828054620000cf9062000180565b90600052602060002090601f016020900481019282620000f357600085556200013e565b82601f106200010e57805160ff19168380011785556200013e565b828001600101855582156200013e579182015b828111156200013e57825182559160200191906001019062000121565b506200014c92915062000150565b5090565b5b808211156200014c576000815560010162000151565b60006020828403121562000179578081fd5b5051919050565b600181811c908216806200019557607f821691505b60208210811415620001b757634e487b7160e01b600052602260045260246000fd5b50919050565b610b7e80620001cd6000396000f3fe608060405234801561001057600080fd5b50600436106100b45760003560e01c806370a082311161007157806370a08231146101595780638da5cb5b1461018257806395d89b41146101ad578063a457c2d7146101b5578063a9059cbb146101c8578063dd62ed3e146101db57600080fd5b806306fdde03146100b9578063095ea7b3146100d757806318160ddd146100fa57806323b872dd1461011157806327e235e3146101265780633950935114610146575b600080fd5b6100c1610214565b6040516100ce91906109d2565b60405180910390f35b6100ea6100e53660046109a9565b6102a2565b60405190151581526020016100ce565b61010360025481565b6040519081526020016100ce565b61012461011f36600461096e565b6103f4565b005b61010361013436600461091b565b60046020526000908152604090205481565b6100ea6101543660046109a9565b610608565b61010361016736600461091b565b6001600160a01b031660009081526004602052604090205490565b600354610195906001600160a01b031681565b6040516001600160a01b0390911681526020016100ce565b6100c1610710565b6100ea6101c33660046109a9565b61071d565b6101246101d63660046109a9565b6107a8565b6101036101e936600461093c565b6001600160a01b03918216600090815260056020908152604080832093909416825291909152205490565b6000805461022190610af7565b80601f016020809104026020016040519081016040528092919081815260200182805461024d90610af7565b801561029a5780601f1061026f5761010080835404028352916020019161029a565b820191906000526020600020905b81548152906001019060200180831161027d57829003601f168201915b505050505081565b60065460009060ff16156102d15760405162461bcd60e51b81526004016102c890610aa0565b60405180910390fd5b6006805460ff191660011790556001600160a01b0383166103345760405162461bcd60e51b815260206004820152601760248201527f496e76616c6964205370656e646572206164647265737300000000000000000060448201526064016102c8565b336000908152600460205260409020548211156103635760405162461bcd60e51b81526004016102c890610a6b565b3360009081526004602052604081208054849290610382908490610ae0565b90915550503360008181526005602090815260408083206001600160a01b03881680855290835292819020869055518581529192917f8c5be1e5ebec7d5bd14f71427d1e84f3dd0314c0f7b2291e5b200ac8c7c3b925910160405180910390a350506006805460ff1916905550600190565b60065460ff16156104175760405162461bcd60e51b81526004016102c890610aa0565b6006805460ff191660011790556001600160a01b0383161580159061044457506001600160a01b03821615155b801561044e575060015b61046a5760405162461bcd60e51b81526004016102c890610a25565b6001600160a01b0383166000908152600460205260409020548111156104a25760405162461bcd60e51b81526004016102c890610a6b565b816001600160a01b0316836001600160a01b031614156105145760405162461bcd60e51b815260206004820152602760248201527f73656e64657220616e6420726563697069656e742063616e6e6f74206265207460448201526668652073616d6560c81b60648201526084016102c8565b6001600160a01b0383166000908152600460205260408120805483929061053c908490610ae0565b90915550506001600160a01b03821660009081526004602052604081208054839290610569908490610ac8565b90915550506001600160a01b038084166000908152600560209081526040808320938616835292905290812080548392906105a5908490610ac8565b92505081905550816001600160a01b0316836001600160a01b03167fddf252ad1be2c89b69c2b068fc378daa952ba7f163c4a11628f55a4df523b3ef836040516105f191815260200190565b60405180910390a350506006805460ff1916905550565b60006001600160a01b0383166106605760405162461bcd60e51b815260206004820152601e60248201527f5370656e646572206973206e6f7420612076616c69642061646472657373000060448201526064016102c8565b3360009081526004602052604090205482111561068f5760405162461bcd60e51b81526004016102c890610a6b565b3360009081526005602090815260408083206001600160a01b0387168452909152812080548492906106c2908490610ac8565b90915550506040518281526001600160a01b0384169033907f8c5be1e5ebec7d5bd14f71427d1e84f3dd0314c0f7b2291e5b200ac8c7c3b9259060200160405180910390a350600192915050565b6001805461022190610af7565b60006001600160a01b0383166107755760405162461bcd60e51b815260206004820152601e60248201527f5370656e646572206973206e6f7420612076616c69642061646472657373000060448201526064016102c8565b3360009081526005602090815260408083206001600160a01b0387168452909152812080548492906106c2908490610ae0565b60065460ff16156107cb5760405162461bcd60e51b81526004016102c890610aa0565b6006805460ff191660011790556001600160a01b038216158015906107ee575060015b61080a5760405162461bcd60e51b81526004016102c890610a25565b336000908152600460205260409020548111156108605760405162461bcd60e51b8152602060048201526014602482015273151bdad95b881b1a5b5a5d08195e18d95959195960621b60448201526064016102c8565b336000908152600460205260408120805483929061087f908490610ae0565b90915550506001600160a01b038216600090815260046020526040812080548392906108ac908490610ac8565b90915550506040518181526001600160a01b0383169033907fddf252ad1be2c89b69c2b068fc378daa952ba7f163c4a11628f55a4df523b3ef9060200160405180910390a350506006805460ff19169055565b80356001600160a01b038116811461091657600080fd5b919050565b60006020828403121561092c578081fd5b610935826108ff565b9392505050565b6000806040838503121561094e578081fd5b610957836108ff565b9150610965602084016108ff565b90509250929050565b600080600060608486031215610982578081fd5b61098b846108ff565b9250610999602085016108ff565b9150604084013590509250925092565b600080604083850312156109bb578182fd5b6109c4836108ff565b946020939093013593505050565b6000602080835283518082850152825b818110156109fe578581018301518582016040015282016109e2565b81811115610a0f5783604083870101525b50601f01601f1916929092016040019392505050565b60208082526026908201527f50726f76696465642061646472657373206f722076616c7565206973206e6f74604082015265081d985b1a5960d21b606082015260800190565b6020808252818101527f4f776e657220646f6573206e6f74206861766520656e6f7567682066756e6473604082015260600190565b6020808252600e908201526d4e6f2072652d656e7472616e637960901b604082015260600190565b60008219821115610adb57610adb610b32565b500190565b600082821015610af257610af2610b32565b500390565b600181811c90821680610b0b57607f821691505b60208210811415610b2c57634e487b7160e01b600052602260045260246000fd5b50919050565b634e487b7160e01b600052601160045260246000fdfea26469706673582212205a2db4b67501c886847c6217d5d380c7dc70b09871fe4138ceb9a0e91689c81d64736f6c63430008040033",
  "linkReferences": {},
  "deployedLinkReferences": {}
}